{
  "_format": "hh-sol-artifact-1",
  "contractName": "LotteryTicket",
  "sourceName": "contracts/LotteryTicket.sol",
  "abi": [
    {
      "inputs": [],
      "stateMutability": "nonpayable",
      "type": "constructor"
    },
    {
      "inputs": [],
      "name": "ERC721EnumerableForbiddenBatchMint",
      "type": "error"
    },
    {
      "inputs": [
        {
          "internalType": "address",
          "name": "sender",
          "type": "address"
        },
        {
          "internalType": "uint256",
          "name": "tokenId",
          "type": "uint256"
        },
        {
          "internalType": "address",
          "name": "owner",
          "type": "address"
        }
      ],
      "name": "ERC721IncorrectOwner",
      "type": "error"
    },
    {
      "inputs": [
        {
          "internalType": "address",
          "name": "operator",
          "type": "address"
        },
        {
          "internalType": "uint256",
          "name": "tokenId",
          "type": "uint256"
        }
      ],
      "name": "ERC721InsufficientApproval",
      "type": "error"
    },
    {
      "inputs": [
        {
          "internalType": "address",
          "name": "approver",
          "type": "address"
        }
      ],
      "name": "ERC721InvalidApprover",
      "type": "error"
    },
    {
      "inputs": [
        {
          "internalType": "address",
          "name": "operator",
          "type": "address"
        }
      ],
      "name": "ERC721InvalidOperator",
      "type": "error"
    },
    {
      "inputs": [
        {
          "internalType": "address",
          "name": "owner",
          "type": "address"
        }
      ],
      "name": "ERC721InvalidOwner",
      "type": "error"
    },
    {
      "inputs": [
        {
          "internalType": "address",
          "name": "receiver",
          "type": "address"
        }
      ],
      "name": "ERC721InvalidReceiver",
      "type": "error"
    },
    {
      "inputs": [
        {
          "internalType": "address",
          "name": "sender",
          "type": "address"
        }
      ],
      "name": "ERC721InvalidSender",
      "type": "error"
    },
    {
      "inputs": [
        {
          "internalType": "uint256",
          "name": "tokenId",
          "type": "uint256"
        }
      ],
      "name": "ERC721NonexistentToken",
      "type": "error"
    },
    {
      "inputs": [
        {
          "internalType": "address",
          "name": "owner",
          "type": "address"
        },
        {
          "internalType": "uint256",
          "name": "index",
          "type": "uint256"
        }
      ],
      "name": "ERC721OutOfBoundsIndex",
      "type": "error"
    },
    {
      "inputs": [
        {
          "internalType": "address",
          "name": "owner",
          "type": "address"
        }
      ],
      "name": "OwnableInvalidOwner",
      "type": "error"
    },
    {
      "inputs": [
        {
          "internalType": "address",
          "name": "account",
          "type": "address"
        }
      ],
      "name": "OwnableUnauthorizedAccount",
      "type": "error"
    },
    {
      "anonymous": false,
      "inputs": [
        {
          "indexed": true,
          "internalType": "address",
          "name": "owner",
          "type": "address"
        },
        {
          "indexed": true,
          "internalType": "address",
          "name": "approved",
          "type": "address"
        },
        {
          "indexed": true,
          "internalType": "uint256",
          "name": "tokenId",
          "type": "uint256"
        }
      ],
      "name": "Approval",
      "type": "event"
    },
    {
      "anonymous": false,
      "inputs": [
        {
          "indexed": true,
          "internalType": "address",
          "name": "owner",
          "type": "address"
        },
        {
          "indexed": true,
          "internalType": "address",
          "name": "operator",
          "type": "address"
        },
        {
          "indexed": false,
          "internalType": "bool",
          "name": "approved",
          "type": "bool"
        }
      ],
      "name": "ApprovalForAll",
      "type": "event"
    },
    {
      "anonymous": false,
      "inputs": [
        {
          "indexed": true,
          "internalType": "address",
          "name": "previousOwner",
          "type": "address"
        },
        {
          "indexed": true,
          "internalType": "address",
          "name": "newOwner",
          "type": "address"
        }
      ],
      "name": "OwnershipTransferred",
      "type": "event"
    },
    {
      "anonymous": false,
      "inputs": [
        {
          "indexed": true,
          "internalType": "address",
          "name": "from",
          "type": "address"
        },
        {
          "indexed": true,
          "internalType": "address",
          "name": "to",
          "type": "address"
        },
        {
          "indexed": true,
          "internalType": "uint256",
          "name": "tokenId",
          "type": "uint256"
        }
      ],
      "name": "Transfer",
      "type": "event"
    },
    {
      "inputs": [
        {
          "internalType": "address",
          "name": "to",
          "type": "address"
        },
        {
          "internalType": "uint256",
          "name": "tokenId",
          "type": "uint256"
        }
      ],
      "name": "approve",
      "outputs": [],
      "stateMutability": "nonpayable",
      "type": "function"
    },
    {
      "inputs": [
        {
          "internalType": "address",
          "name": "owner",
          "type": "address"
        }
      ],
      "name": "balanceOf",
      "outputs": [
        {
          "internalType": "uint256",
          "name": "",
          "type": "uint256"
        }
      ],
      "stateMutability": "view",
      "type": "function"
    },
    {
      "inputs": [
        {
          "internalType": "uint256",
          "name": "tokenId",
          "type": "uint256"
        }
      ],
      "name": "getApproved",
      "outputs": [
        {
          "internalType": "address",
          "name": "",
          "type": "address"
        }
      ],
      "stateMutability": "view",
      "type": "function"
    },
    {
      "inputs": [
        {
          "internalType": "uint256",
          "name": "tokenId",
          "type": "uint256"
        }
      ],
      "name": "getTicketInfo",
      "outputs": [
        {
          "components": [
            {
              "internalType": "uint256",
              "name": "lotteryId",
              "type": "uint256"
            },
            {
              "internalType": "uint256",
              "name": "choiceIndex",
              "type": "uint256"
            },
            {
              "internalType": "uint256",
              "name": "amount",
              "type": "uint256"
            }
          ],
          "internalType": "struct LotteryTicket.TicketInfo",
          "name": "",
          "type": "tuple"
        }
      ],
      "stateMutability": "view",
      "type": "function"
    },
    {
      "inputs": [
        {
          "internalType": "address",
          "name": "owner",
          "type": "address"
        },
        {
          "internalType": "address",
          "name": "operator",
          "type": "address"
        }
      ],
      "name": "isApprovedForAll",
      "outputs": [
        {
          "internalType": "bool",
          "name": "",
          "type": "bool"
        }
      ],
      "stateMutability": "view",
      "type": "function"
    },
    {
      "inputs": [
        {
          "internalType": "address",
          "name": "to",
          "type": "address"
        },
        {
          "internalType": "uint256",
          "name": "lotteryId",
          "type": "uint256"
        },
        {
          "internalType": "uint256",
          "name": "choiceIndex",
          "type": "uint256"
        },
        {
          "internalType": "uint256",
          "name": "amount",
          "type": "uint256"
        }
      ],
      "name": "mint",
      "outputs": [
        {
          "internalType": "uint256",
          "name": "",
          "type": "uint256"
        }
      ],
      "stateMutability": "nonpayable",
      "type": "function"
    },
    {
      "inputs": [],
      "name": "name",
      "outputs": [
        {
          "internalType": "string",
          "name": "",
          "type": "string"
        }
      ],
      "stateMutability": "view",
      "type": "function"
    },
    {
      "inputs": [],
      "name": "owner",
      "outputs": [
        {
          "internalType": "address",
          "name": "",
          "type": "address"
        }
      ],
      "stateMutability": "view",
      "type": "function"
    },
    {
      "inputs": [
        {
          "internalType": "uint256",
          "name": "tokenId",
          "type": "uint256"
        }
      ],
      "name": "ownerOf",
      "outputs": [
        {
          "internalType": "address",
          "name": "",
          "type": "address"
        }
      ],
      "stateMutability": "view",
      "type": "function"
    },
    {
      "inputs": [],
      "name": "renounceOwnership",
      "outputs": [],
      "stateMutability": "nonpayable",
      "type": "function"
    },
    {
      "inputs": [
        {
          "internalType": "address",
          "name": "from",
          "type": "address"
        },
        {
          "internalType": "address",
          "name": "to",
          "type": "address"
        },
        {
          "internalType": "uint256",
          "name": "tokenId",
          "type": "uint256"
        }
      ],
      "name": "safeTransferFrom",
      "outputs": [],
      "stateMutability": "nonpayable",
      "type": "function"
    },
    {
      "inputs": [
        {
          "internalType": "address",
          "name": "from",
          "type": "address"
        },
        {
          "internalType": "address",
          "name": "to",
          "type": "address"
        },
        {
          "internalType": "uint256",
          "name": "tokenId",
          "type": "uint256"
        },
        {
          "internalType": "bytes",
          "name": "data",
          "type": "bytes"
        }
      ],
      "name": "safeTransferFrom",
      "outputs": [],
      "stateMutability": "nonpayable",
      "type": "function"
    },
    {
      "inputs": [
        {
          "internalType": "address",
          "name": "operator",
          "type": "address"
        },
        {
          "internalType": "bool",
          "name": "approved",
          "type": "bool"
        }
      ],
      "name": "setApprovalForAll",
      "outputs": [],
      "stateMutability": "nonpayable",
      "type": "function"
    },
    {
      "inputs": [
        {
          "internalType": "bytes4",
          "name": "interfaceId",
          "type": "bytes4"
        }
      ],
      "name": "supportsInterface",
      "outputs": [
        {
          "internalType": "bool",
          "name": "",
          "type": "bool"
        }
      ],
      "stateMutability": "view",
      "type": "function"
    },
    {
      "inputs": [],
      "name": "symbol",
      "outputs": [
        {
          "internalType": "string",
          "name": "",
          "type": "string"
        }
      ],
      "stateMutability": "view",
      "type": "function"
    },
    {
      "inputs": [
        {
          "internalType": "uint256",
          "name": "",
          "type": "uint256"
        }
      ],
      "name": "ticketInfos",
      "outputs": [
        {
          "internalType": "uint256",
          "name": "lotteryId",
          "type": "uint256"
        },
        {
          "internalType": "uint256",
          "name": "choiceIndex",
          "type": "uint256"
        },
        {
          "internalType": "uint256",
          "name": "amount",
          "type": "uint256"
        }
      ],
      "stateMutability": "view",
      "type": "function"
    },
    {
      "inputs": [
        {
          "internalType": "uint256",
          "name": "index",
          "type": "uint256"
        }
      ],
      "name": "tokenByIndex",
      "outputs": [
        {
          "internalType": "uint256",
          "name": "",
          "type": "uint256"
        }
      ],
      "stateMutability": "view",
      "type": "function"
    },
    {
      "inputs": [
        {
          "internalType": "address",
          "name": "owner",
          "type": "address"
        },
        {
          "internalType": "uint256",
          "name": "index",
          "type": "uint256"
        }
      ],
      "name": "tokenOfOwnerByIndex",
      "outputs": [
        {
          "internalType": "uint256",
          "name": "",
          "type": "uint256"
        }
      ],
      "stateMutability": "view",
      "type": "function"
    },
    {
      "inputs": [
        {
          "internalType": "uint256",
          "name": "tokenId",
          "type": "uint256"
        }
      ],
      "name": "tokenURI",
      "outputs": [
        {
          "internalType": "string",
          "name": "",
          "type": "string"
        }
      ],
      "stateMutability": "view",
      "type": "function"
    },
    {
      "inputs": [],
      "name": "totalSupply",
      "outputs": [
        {
          "internalType": "uint256",
          "name": "",
          "type": "uint256"
        }
      ],
      "stateMutability": "view",
      "type": "function"
    },
    {
      "inputs": [
        {
          "internalType": "address",
          "name": "from",
          "type": "address"
        },
        {
          "internalType": "address",
          "name": "to",
          "type": "address"
        },
        {
          "internalType": "uint256",
          "name": "tokenId",
          "type": "uint256"
        }
      ],
      "name": "transferFrom",
      "outputs": [],
      "stateMutability": "nonpayable",
      "type": "function"
    },
    {
      "inputs": [
        {
          "internalType": "address",
          "name": "newOwner",
          "type": "address"
        }
      ],
      "name": "transferOwnership",
      "outputs": [],
      "stateMutability": "nonpayable",
      "type": "function"
    }
  ],
  "bytecode": "0x60806040523480156200001157600080fd5b50336040518060400160405280600d81526020017f4c6f74746572795469636b6574000000000000000000000000000000000000008152506040518060400160405280600381526020017f4c54540000000000000000000000000000000000000000000000000000000000815250816000908162000090919062000472565b508060019081620000a2919062000472565b505050600073ffffffffffffffffffffffffffffffffffffffff168173ffffffffffffffffffffffffffffffffffffffff16036200011a5760006040517f1e4fbdf70000000000000000000000000000000000000000000000000000000081526004016200011191906200059e565b60405180910390fd5b6200012b816200013260201b60201c565b50620005bb565b6000600a60009054906101000a900473ffffffffffffffffffffffffffffffffffffffff16905081600a60006101000a81548173ffffffffffffffffffffffffffffffffffffffff021916908373ffffffffffffffffffffffffffffffffffffffff1602179055508173ffffffffffffffffffffffffffffffffffffffff168173ffffffffffffffffffffffffffffffffffffffff167f8be0079c531659141344cd1fd0a4f28419497f9722a3daafe3b4186f6b6457e060405160405180910390a35050565b600081519050919050565b7f4e487b7100000000000000000000000000000000000000000000000000000000600052604160045260246000fd5b7f4e487b7100000000000000000000000000000000000000000000000000000000600052602260045260246000fd5b600060028204905060018216806200027a57607f821691505b60208210810362000290576200028f62000232565b5b50919050565b60008190508160005260206000209050919050565b60006020601f8301049050919050565b600082821b905092915050565b600060088302620002fa7fffffffffffffffffffffffffffffffffffffffffffffffffffffffffffffffff82620002bb565b620003068683620002bb565b95508019841693508086168417925050509392505050565b6000819050919050565b6000819050919050565b6000620003536200034d62000347846200031e565b62000328565b6200031e565b9050919050565b6000819050919050565b6200036f8362000332565b620003876200037e826200035a565b848454620002c8565b825550505050565b600090565b6200039e6200038f565b620003ab81848462000364565b505050565b5b81811015620003d357620003c760008262000394565b600181019050620003b1565b5050565b601f8211156200042257620003ec8162000296565b620003f784620002ab565b8101602085101562000407578190505b6200041f6200041685620002ab565b830182620003b0565b50505b505050565b600082821c905092915050565b6000620004476000198460080262000427565b1980831691505092915050565b600062000462838362000434565b9150826002028217905092915050565b6200047d82620001f8565b67ffffffffffffffff81111562000499576200049862000203565b5b620004a5825462000261565b620004b2828285620003d7565b600060209050601f831160018114620004ea5760008415620004d5578287015190505b620004e1858262000454565b86555062000551565b601f198416620004fa8662000296565b60005b828110156200052457848901518255600182019150602085019450602081019050620004fd565b8683101562000544578489015162000540601f89168262000434565b8355505b6001600288020188555050505b505050505050565b600073ffffffffffffffffffffffffffffffffffffffff82169050919050565b6000620005868262000559565b9050919050565b620005988162000579565b82525050565b6000602082019050620005b560008301846200058d565b92915050565b612a7180620005cb6000396000f3fe608060405234801561001057600080fd5b50600436106101425760003560e01c806370a08231116100b8578063a647e8ec1161007c578063a647e8ec1461038b578063b88d4fde146103bb578063c87b56dd146103d7578063e985e9c514610407578063f2fde38b14610437578063ff99a0631461045357610142565b806370a08231146102f9578063715018a6146103295780638da5cb5b1461033357806395d89b4114610351578063a22cb4651461036f57610142565b806318160ddd1161010a57806318160ddd1461021357806323b872dd146102315780632f745c591461024d57806342842e0e1461027d5780634f6ccce7146102995780636352211e146102c957610142565b806301ffc9a71461014757806306fdde0314610177578063081812fc14610195578063095ea7b3146101c55780630bc5c3f5146101e1575b600080fd5b610161600480360381019061015c91906120a8565b610483565b60405161016e91906120f0565b60405180910390f35b61017f610495565b60405161018c919061219b565b60405180910390f35b6101af60048036038101906101aa91906121f3565b610527565b6040516101bc9190612261565b60405180910390f35b6101df60048036038101906101da91906122a8565b610543565b005b6101fb60048036038101906101f691906121f3565b610559565b60405161020a939291906122f7565b60405180910390f35b61021b610583565b604051610228919061232e565b60405180910390f35b61024b60048036038101906102469190612349565b610590565b005b610267600480360381019061026291906122a8565b610692565b604051610274919061232e565b60405180910390f35b61029760048036038101906102929190612349565b61073b565b005b6102b360048036038101906102ae91906121f3565b61075b565b6040516102c0919061232e565b60405180910390f35b6102e360048036038101906102de91906121f3565b6107d1565b6040516102f09190612261565b60405180910390f35b610313600480360381019061030e919061239c565b6107e3565b604051610320919061232e565b60405180910390f35b61033161089d565b005b61033b6108b1565b6040516103489190612261565b60405180910390f35b6103596108db565b604051610366919061219b565b60405180910390f35b610389600480360381019061038491906123f5565b61096d565b005b6103a560048036038101906103a09190612435565b610983565b6040516103b2919061232e565b60405180910390f35b6103d560048036038101906103d091906125d1565b610a0d565b005b6103f160048036038101906103ec91906121f3565b610a2a565b6040516103fe919061219b565b60405180910390f35b610421600480360381019061041c9190612654565b610a93565b60405161042e91906120f0565b60405180910390f35b610451600480360381019061044c919061239c565b610b27565b005b61046d600480360381019061046891906121f3565b610bad565b60405161047a91906126e5565b60405180910390f35b600061048e82610bf8565b9050919050565b6060600080546104a49061272f565b80601f01602080910402602001604051908101604052809291908181526020018280546104d09061272f565b801561051d5780601f106104f25761010080835404028352916020019161051d565b820191906000526020600020905b81548152906001019060200180831161050057829003601f168201915b5050505050905090565b600061053282610c72565b5061053c82610cfa565b9050919050565b6105558282610550610d37565b610d3f565b5050565b600c6020528060005260406000206000915090508060000154908060010154908060020154905083565b6000600880549050905090565b600073ffffffffffffffffffffffffffffffffffffffff168273ffffffffffffffffffffffffffffffffffffffff16036106025760006040517f64a0ae920000000000000000000000000000000000000000000000000000000081526004016105f99190612261565b60405180910390fd5b60006106168383610611610d37565b610d51565b90508373ffffffffffffffffffffffffffffffffffffffff168173ffffffffffffffffffffffffffffffffffffffff161461068c578382826040517f64283d7b00000000000000000000000000000000000000000000000000000000815260040161068393929190612760565b60405180910390fd5b50505050565b600061069d836107e3565b82106106e25782826040517fa57d13dc0000000000000000000000000000000000000000000000000000000081526004016106d9929190612797565b60405180910390fd5b600660008473ffffffffffffffffffffffffffffffffffffffff1673ffffffffffffffffffffffffffffffffffffffff168152602001908152602001600020600083815260200190815260200160002054905092915050565b61075683838360405180602001604052806000815250610a0d565b505050565b6000610765610583565b82106107ab576000826040517fa57d13dc0000000000000000000000000000000000000000000000000000000081526004016107a2929190612797565b60405180910390fd5b600882815481106107bf576107be6127c0565b5b90600052602060002001549050919050565b60006107dc82610c72565b9050919050565b60008073ffffffffffffffffffffffffffffffffffffffff168273ffffffffffffffffffffffffffffffffffffffff16036108565760006040517f89c62b6400000000000000000000000000000000000000000000000000000000815260040161084d9190612261565b60405180910390fd5b600360008373ffffffffffffffffffffffffffffffffffffffff1673ffffffffffffffffffffffffffffffffffffffff168152602001908152602001600020549050919050565b6108a5610d67565b6108af6000610dee565b565b6000600a60009054906101000a900473ffffffffffffffffffffffffffffffffffffffff16905090565b6060600180546108ea9061272f565b80601f01602080910402602001604051908101604052809291908181526020018280546109169061272f565b80156109635780601f1061093857610100808354040283529160200191610963565b820191906000526020600020905b81548152906001019060200180831161094657829003601f168201915b5050505050905090565b61097f610978610d37565b8383610eb4565b5050565b600061098d610d67565b6000600b60008154809291906109a29061281e565b9190505590506109b28682611023565b604051806060016040528086815260200185815260200184815250600c600083815260200190815260200160002060008201518160000155602082015181600101556040820151816002015590505080915050949350505050565b610a18848484610590565b610a248484848461111c565b50505050565b6060610a3582610c72565b506000610a406112d3565b90506000815111610a605760405180602001604052806000815250610a8b565b80610a6a846112ea565b604051602001610a7b9291906128a2565b6040516020818303038152906040525b915050919050565b6000600560008473ffffffffffffffffffffffffffffffffffffffff1673ffffffffffffffffffffffffffffffffffffffff16815260200190815260200160002060008373ffffffffffffffffffffffffffffffffffffffff1673ffffffffffffffffffffffffffffffffffffffff16815260200190815260200160002060009054906101000a900460ff16905092915050565b610b2f610d67565b600073ffffffffffffffffffffffffffffffffffffffff168173ffffffffffffffffffffffffffffffffffffffff1603610ba15760006040517f1e4fbdf7000000000000000000000000000000000000000000000000000000008152600401610b989190612261565b60405180910390fd5b610baa81610dee565b50565b610bb561201b565b600c600083815260200190815260200160002060405180606001604052908160008201548152602001600182015481526020016002820154815250509050919050565b60007f780e9d63000000000000000000000000000000000000000000000000000000007bffffffffffffffffffffffffffffffffffffffffffffffffffffffff1916827bffffffffffffffffffffffffffffffffffffffffffffffffffffffff19161480610c6b5750610c6a826113b8565b5b9050919050565b600080610c7e8361149a565b9050600073ffffffffffffffffffffffffffffffffffffffff168173ffffffffffffffffffffffffffffffffffffffff1603610cf157826040517f7e273289000000000000000000000000000000000000000000000000000000008152600401610ce8919061232e565b60405180910390fd5b80915050919050565b60006004600083815260200190815260200160002060009054906101000a900473ffffffffffffffffffffffffffffffffffffffff169050919050565b600033905090565b610d4c83838360016114d7565b505050565b6000610d5e84848461169c565b90509392505050565b610d6f610d37565b73ffffffffffffffffffffffffffffffffffffffff16610d8d6108b1565b73ffffffffffffffffffffffffffffffffffffffff1614610dec57610db0610d37565b6040517f118cdaa7000000000000000000000000000000000000000000000000000000008152600401610de39190612261565b60405180910390fd5b565b6000600a60009054906101000a900473ffffffffffffffffffffffffffffffffffffffff16905081600a60006101000a81548173ffffffffffffffffffffffffffffffffffffffff021916908373ffffffffffffffffffffffffffffffffffffffff1602179055508173ffffffffffffffffffffffffffffffffffffffff168173ffffffffffffffffffffffffffffffffffffffff167f8be0079c531659141344cd1fd0a4f28419497f9722a3daafe3b4186f6b6457e060405160405180910390a35050565b600073ffffffffffffffffffffffffffffffffffffffff168273ffffffffffffffffffffffffffffffffffffffff1603610f2557816040517f5b08ba18000000000000000000000000000000000000000000000000000000008152600401610f1c9190612261565b60405180910390fd5b80600560008573ffffffffffffffffffffffffffffffffffffffff1673ffffffffffffffffffffffffffffffffffffffff16815260200190815260200160002060008473ffffffffffffffffffffffffffffffffffffffff1673ffffffffffffffffffffffffffffffffffffffff16815260200190815260200160002060006101000a81548160ff0219169083151502179055508173ffffffffffffffffffffffffffffffffffffffff168373ffffffffffffffffffffffffffffffffffffffff167f17307eab39ab6107e8899845ad3d59bd9653f200f220920489ca2b5937696c318360405161101691906120f0565b60405180910390a3505050565b600073ffffffffffffffffffffffffffffffffffffffff168273ffffffffffffffffffffffffffffffffffffffff16036110955760006040517f64a0ae9200000000000000000000000000000000000000000000000000000000815260040161108c9190612261565b60405180910390fd5b60006110a383836000610d51565b9050600073ffffffffffffffffffffffffffffffffffffffff168173ffffffffffffffffffffffffffffffffffffffff16146111175760006040517f73c6ac6e00000000000000000000000000000000000000000000000000000000815260040161110e9190612261565b60405180910390fd5b505050565b60008373ffffffffffffffffffffffffffffffffffffffff163b11156112cd578273ffffffffffffffffffffffffffffffffffffffff1663150b7a02611160610d37565b8685856040518563ffffffff1660e01b8152600401611182949392919061291b565b6020604051808303816000875af19250505080156111be57506040513d601f19601f820116820180604052508101906111bb919061297c565b60015b611242573d80600081146111ee576040519150601f19603f3d011682016040523d82523d6000602084013e6111f3565b606091505b50600081510361123a57836040517f64a0ae920000000000000000000000000000000000000000000000000000000081526004016112319190612261565b60405180910390fd5b805181602001fd5b63150b7a0260e01b7bffffffffffffffffffffffffffffffffffffffffffffffffffffffff1916817bffffffffffffffffffffffffffffffffffffffffffffffffffffffff1916146112cb57836040517f64a0ae920000000000000000000000000000000000000000000000000000000081526004016112c29190612261565b60405180910390fd5b505b50505050565b606060405180602001604052806000815250905090565b6060600060016112f9846117b9565b01905060008167ffffffffffffffff811115611318576113176124a6565b5b6040519080825280601f01601f19166020018201604052801561134a5781602001600182028036833780820191505090505b509050600082602001820190505b6001156113ad578080600190039150507f3031323334353637383961626364656600000000000000000000000000000000600a86061a8153600a85816113a1576113a06129a9565b5b04945060008503611358575b819350505050919050565b60007f80ac58cd000000000000000000000000000000000000000000000000000000007bffffffffffffffffffffffffffffffffffffffffffffffffffffffff1916827bffffffffffffffffffffffffffffffffffffffffffffffffffffffff1916148061148357507f5b5e139f000000000000000000000000000000000000000000000000000000007bffffffffffffffffffffffffffffffffffffffffffffffffffffffff1916827bffffffffffffffffffffffffffffffffffffffffffffffffffffffff1916145b8061149357506114928261190c565b5b9050919050565b60006002600083815260200190815260200160002060009054906101000a900473ffffffffffffffffffffffffffffffffffffffff169050919050565b80806115105750600073ffffffffffffffffffffffffffffffffffffffff168273ffffffffffffffffffffffffffffffffffffffff1614155b1561164457600061152084610c72565b9050600073ffffffffffffffffffffffffffffffffffffffff168373ffffffffffffffffffffffffffffffffffffffff161415801561158b57508273ffffffffffffffffffffffffffffffffffffffff168173ffffffffffffffffffffffffffffffffffffffff1614155b801561159e575061159c8184610a93565b155b156115e057826040517fa9fbf51f0000000000000000000000000000000000000000000000000000000081526004016115d79190612261565b60405180910390fd5b811561164257838573ffffffffffffffffffffffffffffffffffffffff168273ffffffffffffffffffffffffffffffffffffffff167f8c5be1e5ebec7d5bd14f71427d1e84f3dd0314c0f7b2291e5b200ac8c7c3b92560405160405180910390a45b505b836004600085815260200190815260200160002060006101000a81548173ffffffffffffffffffffffffffffffffffffffff021916908373ffffffffffffffffffffffffffffffffffffffff16021790555050505050565b6000806116aa858585611976565b9050600073ffffffffffffffffffffffffffffffffffffffff168173ffffffffffffffffffffffffffffffffffffffff16036116ee576116e984611b90565b61172d565b8473ffffffffffffffffffffffffffffffffffffffff168173ffffffffffffffffffffffffffffffffffffffff161461172c5761172b8185611bd9565b5b5b600073ffffffffffffffffffffffffffffffffffffffff168573ffffffffffffffffffffffffffffffffffffffff160361176f5761176a84611d3a565b6117ae565b8473ffffffffffffffffffffffffffffffffffffffff168173ffffffffffffffffffffffffffffffffffffffff16146117ad576117ac8585611e0b565b5b5b809150509392505050565b600080600090507a184f03e93ff9f4daa797ed6e38ed64bf6a1f0100000000000000008310611817577a184f03e93ff9f4daa797ed6e38ed64bf6a1f010000000000000000838161180d5761180c6129a9565b5b0492506040810190505b6d04ee2d6d415b85acef81000000008310611854576d04ee2d6d415b85acef8100000000838161184a576118496129a9565b5b0492506020810190505b662386f26fc10000831061188357662386f26fc100008381611879576118786129a9565b5b0492506010810190505b6305f5e10083106118ac576305f5e10083816118a2576118a16129a9565b5b0492506008810190505b61271083106118d15761271083816118c7576118c66129a9565b5b0492506004810190505b606483106118f457606483816118ea576118e96129a9565b5b0492506002810190505b600a8310611903576001810190505b80915050919050565b60007f01ffc9a7000000000000000000000000000000000000000000000000000000007bffffffffffffffffffffffffffffffffffffffffffffffffffffffff1916827bffffffffffffffffffffffffffffffffffffffffffffffffffffffff1916149050919050565b6000806119828461149a565b9050600073ffffffffffffffffffffffffffffffffffffffff168373ffffffffffffffffffffffffffffffffffffffff16146119c4576119c3818486611e96565b5b600073ffffffffffffffffffffffffffffffffffffffff168173ffffffffffffffffffffffffffffffffffffffff1614611a5557611a066000856000806114d7565b6001600360008373ffffffffffffffffffffffffffffffffffffffff1673ffffffffffffffffffffffffffffffffffffffff168152602001908152602001600020600082825403925050819055505b600073ffffffffffffffffffffffffffffffffffffffff168573ffffffffffffffffffffffffffffffffffffffff1614611ad8576001600360008773ffffffffffffffffffffffffffffffffffffffff1673ffffffffffffffffffffffffffffffffffffffff168152602001908152602001600020600082825401925050819055505b846002600086815260200190815260200160002060006101000a81548173ffffffffffffffffffffffffffffffffffffffff021916908373ffffffffffffffffffffffffffffffffffffffff160217905550838573ffffffffffffffffffffffffffffffffffffffff168273ffffffffffffffffffffffffffffffffffffffff167fddf252ad1be2c89b69c2b068fc378daa952ba7f163c4a11628f55a4df523b3ef60405160405180910390a4809150509392505050565b6008805490506009600083815260200190815260200160002081905550600881908060018154018082558091505060019003906000526020600020016000909190919091505550565b6000611be4836107e3565b9050600060076000848152602001908152602001600020549050818114611cc9576000600660008673ffffffffffffffffffffffffffffffffffffffff1673ffffffffffffffffffffffffffffffffffffffff168152602001908152602001600020600084815260200190815260200160002054905080600660008773ffffffffffffffffffffffffffffffffffffffff1673ffffffffffffffffffffffffffffffffffffffff168152602001908152602001600020600084815260200190815260200160002081905550816007600083815260200190815260200160002081905550505b6007600084815260200190815260200160002060009055600660008573ffffffffffffffffffffffffffffffffffffffff1673ffffffffffffffffffffffffffffffffffffffff16815260200190815260200160002060008381526020019081526020016000206000905550505050565b60006001600880549050611d4e91906129d8565b9050600060096000848152602001908152602001600020549050600060088381548110611d7e57611d7d6127c0565b5b906000526020600020015490508060088381548110611da057611d9f6127c0565b5b906000526020600020018190555081600960008381526020019081526020016000208190555060096000858152602001908152602001600020600090556008805480611def57611dee612a0c565b5b6001900381819060005260206000200160009055905550505050565b60006001611e18846107e3565b611e2291906129d8565b905081600660008573ffffffffffffffffffffffffffffffffffffffff1673ffffffffffffffffffffffffffffffffffffffff168152602001908152602001600020600083815260200190815260200160002081905550806007600084815260200190815260200160002081905550505050565b611ea1838383611f5a565b611f5557600073ffffffffffffffffffffffffffffffffffffffff168373ffffffffffffffffffffffffffffffffffffffff1603611f1657806040517f7e273289000000000000000000000000000000000000000000000000000000008152600401611f0d919061232e565b60405180910390fd5b81816040517f177e802f000000000000000000000000000000000000000000000000000000008152600401611f4c929190612797565b60405180910390fd5b505050565b60008073ffffffffffffffffffffffffffffffffffffffff168373ffffffffffffffffffffffffffffffffffffffff161415801561201257508273ffffffffffffffffffffffffffffffffffffffff168473ffffffffffffffffffffffffffffffffffffffff161480611fd35750611fd28484610a93565b5b8061201157508273ffffffffffffffffffffffffffffffffffffffff16611ff983610cfa565b73ffffffffffffffffffffffffffffffffffffffff16145b5b90509392505050565b60405180606001604052806000815260200160008152602001600081525090565b6000604051905090565b600080fd5b600080fd5b60007fffffffff0000000000000000000000000000000000000000000000000000000082169050919050565b61208581612050565b811461209057600080fd5b50565b6000813590506120a28161207c565b92915050565b6000602082840312156120be576120bd612046565b5b60006120cc84828501612093565b91505092915050565b60008115159050919050565b6120ea816120d5565b82525050565b600060208201905061210560008301846120e1565b92915050565b600081519050919050565b600082825260208201905092915050565b60005b8381101561214557808201518184015260208101905061212a565b60008484015250505050565b6000601f19601f8301169050919050565b600061216d8261210b565b6121778185612116565b9350612187818560208601612127565b61219081612151565b840191505092915050565b600060208201905081810360008301526121b58184612162565b905092915050565b6000819050919050565b6121d0816121bd565b81146121db57600080fd5b50565b6000813590506121ed816121c7565b92915050565b60006020828403121561220957612208612046565b5b6000612217848285016121de565b91505092915050565b600073ffffffffffffffffffffffffffffffffffffffff82169050919050565b600061224b82612220565b9050919050565b61225b81612240565b82525050565b60006020820190506122766000830184612252565b92915050565b61228581612240565b811461229057600080fd5b50565b6000813590506122a28161227c565b92915050565b600080604083850312156122bf576122be612046565b5b60006122cd85828601612293565b92505060206122de858286016121de565b9150509250929050565b6122f1816121bd565b82525050565b600060608201905061230c60008301866122e8565b61231960208301856122e8565b61232660408301846122e8565b949350505050565b600060208201905061234360008301846122e8565b92915050565b60008060006060848603121561236257612361612046565b5b600061237086828701612293565b935050602061238186828701612293565b9250506040612392868287016121de565b9150509250925092565b6000602082840312156123b2576123b1612046565b5b60006123c084828501612293565b91505092915050565b6123d2816120d5565b81146123dd57600080fd5b50565b6000813590506123ef816123c9565b92915050565b6000806040838503121561240c5761240b612046565b5b600061241a85828601612293565b925050602061242b858286016123e0565b9150509250929050565b6000806000806080858703121561244f5761244e612046565b5b600061245d87828801612293565b945050602061246e878288016121de565b935050604061247f878288016121de565b9250506060612490878288016121de565b91505092959194509250565b600080fd5b600080fd5b7f4e487b7100000000000000000000000000000000000000000000000000000000600052604160045260246000fd5b6124de82612151565b810181811067ffffffffffffffff821117156124fd576124fc6124a6565b5b80604052505050565b600061251061203c565b905061251c82826124d5565b919050565b600067ffffffffffffffff82111561253c5761253b6124a6565b5b61254582612151565b9050602081019050919050565b82818337600083830152505050565b600061257461256f84612521565b612506565b9050828152602081018484840111156125905761258f6124a1565b5b61259b848285612552565b509392505050565b600082601f8301126125b8576125b761249c565b5b81356125c8848260208601612561565b91505092915050565b600080600080608085870312156125eb576125ea612046565b5b60006125f987828801612293565b945050602061260a87828801612293565b935050604061261b878288016121de565b925050606085013567ffffffffffffffff81111561263c5761263b61204b565b5b612648878288016125a3565b91505092959194509250565b6000806040838503121561266b5761266a612046565b5b600061267985828601612293565b925050602061268a85828601612293565b9150509250929050565b61269d816121bd565b82525050565b6060820160008201516126b96000850182612694565b5060208201516126cc6020850182612694565b5060408201516126df6040850182612694565b50505050565b60006060820190506126fa60008301846126a3565b92915050565b7f4e487b7100000000000000000000000000000000000000000000000000000000600052602260045260246000fd5b6000600282049050600182168061274757607f821691505b60208210810361275a57612759612700565b5b50919050565b60006060820190506127756000830186612252565b61278260208301856122e8565b61278f6040830184612252565b949350505050565b60006040820190506127ac6000830185612252565b6127b960208301846122e8565b9392505050565b7f4e487b7100000000000000000000000000000000000000000000000000000000600052603260045260246000fd5b7f4e487b7100000000000000000000000000000000000000000000000000000000600052601160045260246000fd5b6000612829826121bd565b91507fffffffffffffffffffffffffffffffffffffffffffffffffffffffffffffffff820361285b5761285a6127ef565b5b600182019050919050565b600081905092915050565b600061287c8261210b565b6128868185612866565b9350612896818560208601612127565b80840191505092915050565b60006128ae8285612871565b91506128ba8284612871565b91508190509392505050565b600081519050919050565b600082825260208201905092915050565b60006128ed826128c6565b6128f781856128d1565b9350612907818560208601612127565b61291081612151565b840191505092915050565b60006080820190506129306000830187612252565b61293d6020830186612252565b61294a60408301856122e8565b818103606083015261295c81846128e2565b905095945050505050565b6000815190506129768161207c565b92915050565b60006020828403121561299257612991612046565b5b60006129a084828501612967565b91505092915050565b7f4e487b7100000000000000000000000000000000000000000000000000000000600052601260045260246000fd5b60006129e3826121bd565b91506129ee836121bd565b9250828203905081811115612a0657612a056127ef565b5b92915050565b7f4e487b7100000000000000000000000000000000000000000000000000000000600052603160045260246000fdfea26469706673582212208c5a4ad32995d345e5995cd206f5e85cf190d0e5be44300bc5edf90c0999797c64736f6c63430008140033",
  "linkReferences": {},
  "deployedLinkReferences": {}
}