{
  "_format": "hh-sol-artifact-1",
  "contractName": "Lottery",
  "sourceName": "contracts/Lottery.sol",
  "abi": [
    {
      "inputs": [
        {
          "internalType": "address",
          "name": "_lotteryToken",
          "type": "address"
        },
        {
          "internalType": "address",
          "name": "_lotteryTicket",
          "type": "address"
        }
      ],
      "stateMutability": "nonpayable",
      "type": "constructor"
    },
    {
      "inputs": [
        {
          "internalType": "address",
          "name": "owner",
          "type": "address"
        }
      ],
      "name": "OwnableInvalidOwner",
      "type": "error"
    },
    {
      "inputs": [
        {
          "internalType": "address",
          "name": "account",
          "type": "address"
        }
      ],
      "name": "OwnableUnauthorizedAccount",
      "type": "error"
    },
    {
      "anonymous": false,
      "inputs": [
        {
          "indexed": true,
          "internalType": "uint256",
          "name": "lotteryId",
          "type": "uint256"
        },
        {
          "indexed": false,
          "internalType": "string",
          "name": "name",
          "type": "string"
        },
        {
          "indexed": false,
          "internalType": "uint256",
          "name": "endTime",
          "type": "uint256"
        }
      ],
      "name": "LotteryCreated",
      "type": "event"
    },
    {
      "anonymous": false,
      "inputs": [
        {
          "indexed": true,
          "internalType": "uint256",
          "name": "orderId",
          "type": "uint256"
        }
      ],
      "name": "OrderCancelled",
      "type": "event"
    },
    {
      "anonymous": false,
      "inputs": [
        {
          "indexed": true,
          "internalType": "uint256",
          "name": "orderId",
          "type": "uint256"
        },
        {
          "indexed": true,
          "internalType": "uint256",
          "name": "tokenId",
          "type": "uint256"
        },
        {
          "indexed": true,
          "internalType": "address",
          "name": "seller",
          "type": "address"
        },
        {
          "indexed": false,
          "internalType": "uint256",
          "name": "price",
          "type": "uint256"
        }
      ],
      "name": "OrderPlaced",
      "type": "event"
    },
    {
      "anonymous": false,
      "inputs": [
        {
          "indexed": true,
          "internalType": "address",
          "name": "previousOwner",
          "type": "address"
        },
        {
          "indexed": true,
          "internalType": "address",
          "name": "newOwner",
          "type": "address"
        }
      ],
      "name": "OwnershipTransferred",
      "type": "event"
    },
    {
      "anonymous": false,
      "inputs": [
        {
          "indexed": true,
          "internalType": "address",
          "name": "winner",
          "type": "address"
        },
        {
          "indexed": false,
          "internalType": "uint256",
          "name": "amount",
          "type": "uint256"
        }
      ],
      "name": "PrizeClaimed",
      "type": "event"
    },
    {
      "anonymous": false,
      "inputs": [
        {
          "indexed": true,
          "internalType": "uint256",
          "name": "lotteryId",
          "type": "uint256"
        },
        {
          "indexed": false,
          "internalType": "uint256",
          "name": "winningChoice",
          "type": "uint256"
        }
      ],
      "name": "ResultDeclared",
      "type": "event"
    },
    {
      "anonymous": false,
      "inputs": [
        {
          "indexed": true,
          "internalType": "address",
          "name": "buyer",
          "type": "address"
        },
        {
          "indexed": true,
          "internalType": "uint256",
          "name": "lotteryId",
          "type": "uint256"
        },
        {
          "indexed": true,
          "internalType": "uint256",
          "name": "tokenId",
          "type": "uint256"
        },
        {
          "indexed": false,
          "internalType": "uint256",
          "name": "choiceIndex",
          "type": "uint256"
        },
        {
          "indexed": false,
          "internalType": "uint256",
          "name": "amount",
          "type": "uint256"
        }
      ],
      "name": "TicketPurchased",
      "type": "event"
    },
    {
      "anonymous": false,
      "inputs": [
        {
          "indexed": true,
          "internalType": "uint256",
          "name": "tokenId",
          "type": "uint256"
        },
        {
          "indexed": true,
          "internalType": "address",
          "name": "from",
          "type": "address"
        },
        {
          "indexed": true,
          "internalType": "address",
          "name": "to",
          "type": "address"
        },
        {
          "indexed": false,
          "internalType": "uint256",
          "name": "price",
          "type": "uint256"
        }
      ],
      "name": "TicketTraded",
      "type": "event"
    },
    {
      "inputs": [
        {
          "internalType": "uint256",
          "name": "_lotteryId",
          "type": "uint256"
        },
        {
          "internalType": "uint256",
          "name": "_orderId",
          "type": "uint256"
        }
      ],
      "name": "buyOrder",
      "outputs": [],
      "stateMutability": "nonpayable",
      "type": "function"
    },
    {
      "inputs": [
        {
          "internalType": "uint256",
          "name": "_lotteryId",
          "type": "uint256"
        },
        {
          "internalType": "uint256",
          "name": "_choiceIndex",
          "type": "uint256"
        },
        {
          "internalType": "uint256",
          "name": "_amount",
          "type": "uint256"
        }
      ],
      "name": "buyTicket",
      "outputs": [],
      "stateMutability": "nonpayable",
      "type": "function"
    },
    {
      "inputs": [
        {
          "internalType": "uint256",
          "name": "_lotteryId",
          "type": "uint256"
        },
        {
          "internalType": "uint256",
          "name": "_orderId",
          "type": "uint256"
        }
      ],
      "name": "cancelOrder",
      "outputs": [],
      "stateMutability": "nonpayable",
      "type": "function"
    },
    {
      "inputs": [
        {
          "internalType": "string",
          "name": "_name",
          "type": "string"
        },
        {
          "internalType": "string[]",
          "name": "_choices",
          "type": "string[]"
        },
        {
          "internalType": "uint256",
          "name": "_totalPrize",
          "type": "uint256"
        },
        {
          "internalType": "uint256",
          "name": "_duration",
          "type": "uint256"
        }
      ],
      "name": "createLottery",
      "outputs": [],
      "stateMutability": "nonpayable",
      "type": "function"
    },
    {
      "inputs": [
        {
          "internalType": "uint256",
          "name": "_lotteryId",
          "type": "uint256"
        },
        {
          "internalType": "uint256",
          "name": "_winningChoice",
          "type": "uint256"
        }
      ],
      "name": "declareResult",
      "outputs": [],
      "stateMutability": "nonpayable",
      "type": "function"
    },
    {
      "inputs": [
        {
          "internalType": "uint256",
          "name": "_lotteryId",
          "type": "uint256"
        }
      ],
      "name": "finishLottery",
      "outputs": [],
      "stateMutability": "nonpayable",
      "type": "function"
    },
    {
      "inputs": [
        {
          "internalType": "uint256",
          "name": "_lotteryId",
          "type": "uint256"
        }
      ],
      "name": "getLotteryInfo",
      "outputs": [
        {
          "internalType": "string",
          "name": "name",
          "type": "string"
        },
        {
          "internalType": "string[]",
          "name": "choices",
          "type": "string[]"
        },
        {
          "internalType": "uint256",
          "name": "totalPrize",
          "type": "uint256"
        },
        {
          "internalType": "uint256",
          "name": "endTime",
          "type": "uint256"
        },
        {
          "internalType": "uint256",
          "name": "winningChoice",
          "type": "uint256"
        },
        {
          "internalType": "bool",
          "name": "isFinished",
          "type": "bool"
        },
        {
          "internalType": "bool",
          "name": "isResultDeclared",
          "type": "bool"
        },
        {
          "internalType": "address",
          "name": "creator",
          "type": "address"
        }
      ],
      "stateMutability": "view",
      "type": "function"
    },
    {
      "inputs": [
        {
          "internalType": "uint256",
          "name": "_lotteryId",
          "type": "uint256"
        }
      ],
      "name": "getOrderBook",
      "outputs": [
        {
          "components": [
            {
              "internalType": "uint256",
              "name": "tokenId",
              "type": "uint256"
            },
            {
              "internalType": "address",
              "name": "seller",
              "type": "address"
            },
            {
              "internalType": "uint256",
              "name": "price",
              "type": "uint256"
            },
            {
              "internalType": "bool",
              "name": "active",
              "type": "bool"
            }
          ],
          "internalType": "struct Lottery.Order[]",
          "name": "",
          "type": "tuple[]"
        }
      ],
      "stateMutability": "view",
      "type": "function"
    },
    {
      "inputs": [
        {
          "internalType": "uint256",
          "name": "",
          "type": "uint256"
        }
      ],
      "name": "lotteries",
      "outputs": [
        {
          "internalType": "string",
          "name": "name",
          "type": "string"
        },
        {
          "internalType": "uint256",
          "name": "totalPrize",
          "type": "uint256"
        },
        {
          "internalType": "uint256",
          "name": "endTime",
          "type": "uint256"
        },
        {
          "internalType": "uint256",
          "name": "winningChoice",
          "type": "uint256"
        },
        {
          "internalType": "bool",
          "name": "isFinished",
          "type": "bool"
        },
        {
          "internalType": "bool",
          "name": "isResultDeclared",
          "type": "bool"
        },
        {
          "internalType": "address",
          "name": "creator",
          "type": "address"
        }
      ],
      "stateMutability": "view",
      "type": "function"
    },
    {
      "inputs": [
        {
          "internalType": "uint256",
          "name": "",
          "type": "uint256"
        },
        {
          "internalType": "uint256",
          "name": "",
          "type": "uint256"
        },
        {
          "internalType": "uint256",
          "name": "",
          "type": "uint256"
        }
      ],
      "name": "lotteryChoiceTickets",
      "outputs": [
        {
          "internalType": "uint256",
          "name": "",
          "type": "uint256"
        }
      ],
      "stateMutability": "view",
      "type": "function"
    },
    {
      "inputs": [],
      "name": "lotteryTicket",
      "outputs": [
        {
          "internalType": "contract LotteryTicket",
          "name": "",
          "type": "address"
        }
      ],
      "stateMutability": "view",
      "type": "function"
    },
    {
      "inputs": [],
      "name": "lotteryToken",
      "outputs": [
        {
          "internalType": "contract IERC20",
          "name": "",
          "type": "address"
        }
      ],
      "stateMutability": "view",
      "type": "function"
    },
    {
      "inputs": [],
      "name": "nextLotteryId",
      "outputs": [
        {
          "internalType": "uint256",
          "name": "",
          "type": "uint256"
        }
      ],
      "stateMutability": "view",
      "type": "function"
    },
    {
      "inputs": [
        {
          "internalType": "uint256",
          "name": "",
          "type": "uint256"
        },
        {
          "internalType": "uint256",
          "name": "",
          "type": "uint256"
        }
      ],
      "name": "orderBooks",
      "outputs": [
        {
          "internalType": "uint256",
          "name": "tokenId",
          "type": "uint256"
        },
        {
          "internalType": "address",
          "name": "seller",
          "type": "address"
        },
        {
          "internalType": "uint256",
          "name": "price",
          "type": "uint256"
        },
        {
          "internalType": "bool",
          "name": "active",
          "type": "bool"
        }
      ],
      "stateMutability": "view",
      "type": "function"
    },
    {
      "inputs": [],
      "name": "owner",
      "outputs": [
        {
          "internalType": "address",
          "name": "",
          "type": "address"
        }
      ],
      "stateMutability": "view",
      "type": "function"
    },
    {
      "inputs": [
        {
          "internalType": "uint256",
          "name": "_tokenId",
          "type": "uint256"
        },
        {
          "internalType": "uint256",
          "name": "_price",
          "type": "uint256"
        }
      ],
      "name": "placeOrder",
      "outputs": [],
      "stateMutability": "nonpayable",
      "type": "function"
    },
    {
      "inputs": [],
      "name": "renounceOwnership",
      "outputs": [],
      "stateMutability": "nonpayable",
      "type": "function"
    },
    {
      "inputs": [
        {
          "internalType": "address",
          "name": "newOwner",
          "type": "address"
        }
      ],
      "name": "transferOwnership",
      "outputs": [],
      "stateMutability": "nonpayable",
      "type": "function"
    }
  ],
  "bytecode": "0x608060405260016006553480156200001657600080fd5b5060405162003e7c38038062003e7c83398181016040528101906200003c91906200027c565b33600073ffffffffffffffffffffffffffffffffffffffff168173ffffffffffffffffffffffffffffffffffffffff1603620000b25760006040517f1e4fbdf7000000000000000000000000000000000000000000000000000000008152600401620000a99190620002d4565b60405180910390fd5b620000c3816200014e60201b60201c565b5081600160006101000a81548173ffffffffffffffffffffffffffffffffffffffff021916908373ffffffffffffffffffffffffffffffffffffffff16021790555080600260006101000a81548173ffffffffffffffffffffffffffffffffffffffff021916908373ffffffffffffffffffffffffffffffffffffffff1602179055505050620002f1565b60008060009054906101000a900473ffffffffffffffffffffffffffffffffffffffff169050816000806101000a81548173ffffffffffffffffffffffffffffffffffffffff021916908373ffffffffffffffffffffffffffffffffffffffff1602179055508173ffffffffffffffffffffffffffffffffffffffff168173ffffffffffffffffffffffffffffffffffffffff167f8be0079c531659141344cd1fd0a4f28419497f9722a3daafe3b4186f6b6457e060405160405180910390a35050565b600080fd5b600073ffffffffffffffffffffffffffffffffffffffff82169050919050565b6000620002448262000217565b9050919050565b620002568162000237565b81146200026257600080fd5b50565b60008151905062000276816200024b565b92915050565b6000806040838503121562000296576200029562000212565b5b6000620002a68582860162000265565b9250506020620002b98582860162000265565b9150509250929050565b620002ce8162000237565b82525050565b6000602082019050620002eb6000830184620002c3565b92915050565b613b7b80620003016000396000f3fe608060405234801561001057600080fd5b50600436106101165760003560e01c80638009df68116100a2578063b6ed063211610071578063b6ed0632146102db578063c4c6710d146102f7578063d368f97614610313578063f206c7aa14610343578063f2fde38b1461036157610116565b80638009df6814610265578063843f61e2146102835780638da5cb5b1461029f57806394539467146102bd57610116565b80634c7242ed116100e95780634c7242ed146101a557806356131d37146101d5578063627e766a14610208578063715018a61461022457806376b3c8a81461022e57610116565b80631398e0761461011b578063142ee8d81461015157806328e7bde91461016d57806346d59b9b14610189575b600080fd5b610135600480360381019061013091906123a8565b61037d565b60405161014897969594939291906124d0565b60405180910390f35b61016b60048036038101906101669190612546565b610481565b005b61018760048036038101906101829190612546565b610908565b005b6101a3600480360381019061019e91906123a8565b610b65565b005b6101bf60048036038101906101ba9190612586565b610bf7565b6040516101cc91906125d9565b60405180910390f35b6101ef60048036038101906101ea9190612546565b610c35565b6040516101ff94939291906125f4565b60405180910390f35b610222600480360381019061021d9190612854565b610caf565b005b61022c610f67565b005b610248600480360381019061024391906123a8565b610f7b565b60405161025c9897969594939291906129ff565b60405180910390f35b61026d611179565b60405161027a91906125d9565b60405180910390f35b61029d60048036038101906102989190612546565b61117f565b005b6102a761161a565b6040516102b49190612a8b565b60405180910390f35b6102c5611643565b6040516102d29190612b05565b60405180910390f35b6102f560048036038101906102f09190612546565b611669565b005b610311600480360381019061030c9190612586565b6118bf565b005b61032d600480360381019061032891906123a8565b611d05565b60405161033a9190612c51565b60405180910390f35b61034b611dfc565b6040516103589190612c94565b60405180910390f35b61037b60048036038101906103769190612cdb565b611e22565b005b60036020528060005260406000206000915090508060000180546103a090612d37565b80601f01602080910402602001604051908101604052809291908181526020018280546103cc90612d37565b80156104195780601f106103ee57610100808354040283529160200191610419565b820191906000526020600020905b8154815290600101906020018083116103fc57829003601f168201915b5050505050908060020154908060030154908060040154908060050160009054906101000a900460ff16908060050160019054906101000a900460ff16908060050160029054906101000a900473ffffffffffffffffffffffffffffffffffffffff16905087565b600460008381526020019081526020016000208054905081106104d9576040517f08c379a00000000000000000000000000000000000000000000000000000000081526004016104d090612db4565b60405180910390fd5b6000600460008481526020019081526020016000208281548110610500576104ff612dd4565b5b906000526020600020906004020190508060030160009054906101000a900460ff16610561576040517f08c379a000000000000000000000000000000000000000000000000000000000815260040161055890612e4f565b60405180910390fd5b6000600260009054906101000a900473ffffffffffffffffffffffffffffffffffffffff1673ffffffffffffffffffffffffffffffffffffffff1663ff99a06383600001546040518263ffffffff1660e01b81526004016105c291906125d9565b606060405180830381865afa1580156105df573d6000803e3d6000fd5b505050506040513d601f19601f820116820180604052508101906106039190612eed565b905060006003600086815260200190815260200160002090508060050160009054906101000a900460ff161561066e576040517f08c379a000000000000000000000000000000000000000000000000000000000815260040161066590612f66565b60405180910390fd5b806003015442106106b4576040517f08c379a00000000000000000000000000000000000000000000000000000000081526004016106ab90612fd2565b60405180910390fd5b600160009054906101000a900473ffffffffffffffffffffffffffffffffffffffff1673ffffffffffffffffffffffffffffffffffffffff166323b872dd338560010160009054906101000a900473ffffffffffffffffffffffffffffffffffffffff1686600201546040518463ffffffff1660e01b815260040161073b93929190612ff2565b6020604051808303816000875af115801561075a573d6000803e3d6000fd5b505050506040513d601f19601f8201168201806040525081019061077e9190613055565b6107bd576040517f08c379a00000000000000000000000000000000000000000000000000000000081526004016107b4906130ce565b60405180910390fd5b600260009054906101000a900473ffffffffffffffffffffffffffffffffffffffff1673ffffffffffffffffffffffffffffffffffffffff166323b872dd303386600001546040518463ffffffff1660e01b815260040161082093929190612ff2565b600060405180830381600087803b15801561083a57600080fd5b505af115801561084e573d6000803e3d6000fd5b5050505060008360030160006101000a81548160ff0219169083151502179055503373ffffffffffffffffffffffffffffffffffffffff168360010160009054906101000a900473ffffffffffffffffffffffffffffffffffffffff1673ffffffffffffffffffffffffffffffffffffffff1684600001547fd98c3ef1a94b4c443dca97554e2350d7db2fb7424ff20e8dac7e2ffb7a9b454486600201546040516108f991906125d9565b60405180910390a45050505050565b6000600360008481526020019081526020016000209050600081600001805461093090612d37565b905011610972576040517f08c379a00000000000000000000000000000000000000000000000000000000081526004016109699061313a565b60405180910390fd5b8060050160029054906101000a900473ffffffffffffffffffffffffffffffffffffffff1673ffffffffffffffffffffffffffffffffffffffff163373ffffffffffffffffffffffffffffffffffffffff161480610a0257506109d361161a565b73ffffffffffffffffffffffffffffffffffffffff163373ffffffffffffffffffffffffffffffffffffffff16145b610a41576040517f08c379a0000000000000000000000000000000000000000000000000000000008152600401610a38906131cc565b60405180910390fd5b8060050160019054906101000a900460ff1615610a93576040517f08c379a0000000000000000000000000000000000000000000000000000000008152600401610a8a90613238565b60405180910390fd5b80600101805490508210610adc576040517f08c379a0000000000000000000000000000000000000000000000000000000008152600401610ad3906132a4565b60405180910390fd5b81816004018190555060018160050160016101000a81548160ff02191690831515021790555060018160050160006101000a81548160ff021916908315150217905550610b2883611ea8565b827f97a9e2e4d42bd955a4cf4a3c201f08b73feebfacf054682113ec7769d998cc7183604051610b5891906125d9565b60405180910390a2505050565b610b6d612131565b60006003600083815260200190815260200160002090508060050160009054906101000a900460ff1615610bd6576040517f08c379a0000000000000000000000000000000000000000000000000000000008152600401610bcd90613310565b60405180910390fd5b60018160050160006101000a81548160ff0219169083151502179055505050565b60056020528260005260406000206020528160005260406000208181548110610c1f57600080fd5b9060005260206000200160009250925050505481565b60046020528160005260406000208181548110610c5157600080fd5b9060005260206000209060040201600091509150508060000154908060010160009054906101000a900473ffffffffffffffffffffffffffffffffffffffff16908060020154908060030160009054906101000a900460ff16905084565b610cb7612131565b600283511015610cfc576040517f08c379a0000000000000000000000000000000000000000000000000000000008152600401610cf39061337c565b60405180910390fd5b60008211610d3f576040517f08c379a0000000000000000000000000000000000000000000000000000000008152600401610d36906133e8565b60405180910390fd5b600060066000815480929190610d5490613437565b919050559050600060036000838152602001908152602001600020905085816000019081610d829190613621565b5084816001019080519060200190610d9b929190612284565b508381600201819055508242610db191906136f3565b81600301819055506000816004018190555060008160050160006101000a81548160ff02191690831515021790555060008160050160016101000a81548160ff021916908315150217905550338160050160026101000a81548173ffffffffffffffffffffffffffffffffffffffff021916908373ffffffffffffffffffffffffffffffffffffffff160217905550600160009054906101000a900473ffffffffffffffffffffffffffffffffffffffff1673ffffffffffffffffffffffffffffffffffffffff166323b872dd3330876040518463ffffffff1660e01b8152600401610e9f93929190612ff2565b6020604051808303816000875af1158015610ebe573d6000803e3d6000fd5b505050506040513d601f19601f82011682018060405250810190610ee29190613055565b610f21576040517f08c379a0000000000000000000000000000000000000000000000000000000008152600401610f18906130ce565b60405180910390fd5b817f4c3d66f791206463e78ea7b39d0c6aa702039d33a8e047d32e353fc0d592428e878360030154604051610f57929190613727565b60405180910390a2505050505050565b610f6f612131565b610f7960006121b8565b565b6060806000806000806000806000600360008b8152602001908152602001600020905080600001816001018260020154836003015484600401548560050160009054906101000a900460ff168660050160019054906101000a900460ff168760050160029054906101000a900473ffffffffffffffffffffffffffffffffffffffff1687805461100a90612d37565b80601f016020809104026020016040519081016040528092919081815260200182805461103690612d37565b80156110835780601f1061105857610100808354040283529160200191611083565b820191906000526020600020905b81548152906001019060200180831161106657829003601f168201915b5050505050975086805480602002602001604051908101604052809291908181526020016000905b828210156111575783829060005260206000200180546110ca90612d37565b80601f01602080910402602001604051908101604052809291908181526020018280546110f690612d37565b80156111435780601f1061111857610100808354040283529160200191611143565b820191906000526020600020905b81548152906001019060200180831161112657829003601f168201915b5050505050815260200190600101906110ab565b5050505096509850985098509850985098509850985050919395975091939597565b60065481565b3373ffffffffffffffffffffffffffffffffffffffff16600260009054906101000a900473ffffffffffffffffffffffffffffffffffffffff1673ffffffffffffffffffffffffffffffffffffffff16636352211e846040518263ffffffff1660e01b81526004016111f191906125d9565b602060405180830381865afa15801561120e573d6000803e3d6000fd5b505050506040513d601f19601f82011682018060405250810190611232919061376c565b73ffffffffffffffffffffffffffffffffffffffff1614611288576040517f08c379a000000000000000000000000000000000000000000000000000000000815260040161127f906137e5565b60405180910390fd5b6000600260009054906101000a900473ffffffffffffffffffffffffffffffffffffffff1673ffffffffffffffffffffffffffffffffffffffff1663ff99a063846040518263ffffffff1660e01b81526004016112e591906125d9565b606060405180830381865afa158015611302573d6000803e3d6000fd5b505050506040513d601f19601f820116820180604052508101906113269190612eed565b905060008160000151905060006003600083815260200190815260200160002090508060050160009054906101000a900460ff161561139a576040517f08c379a000000000000000000000000000000000000000000000000000000000815260040161139190612f66565b60405180910390fd5b806003015442106113e0576040517f08c379a00000000000000000000000000000000000000000000000000000000081526004016113d790612fd2565b60405180910390fd5b60008411611423576040517f08c379a000000000000000000000000000000000000000000000000000000000815260040161141a90613851565b60405180910390fd5b600260009054906101000a900473ffffffffffffffffffffffffffffffffffffffff1673ffffffffffffffffffffffffffffffffffffffff166323b872dd3330886040518463ffffffff1660e01b815260040161148293929190612ff2565b600060405180830381600087803b15801561149c57600080fd5b505af11580156114b0573d6000803e3d6000fd5b505050506000600460008481526020019081526020016000208054905090506004600084815260200190815260200160002060405180608001604052808881526020013373ffffffffffffffffffffffffffffffffffffffff1681526020018781526020016001151581525090806001815401808255809150506001900390600052602060002090600402016000909190919091506000820151816000015560208201518160010160006101000a81548173ffffffffffffffffffffffffffffffffffffffff021916908373ffffffffffffffffffffffffffffffffffffffff1602179055506040820151816002015560608201518160030160006101000a81548160ff02191690831515021790555050503373ffffffffffffffffffffffffffffffffffffffff1686827ff272b72b23241ac4dea5dac19b1157309d925f5daa5577f2795bdaaf2af7d0c58860405161160a91906125d9565b60405180910390a4505050505050565b60008060009054906101000a900473ffffffffffffffffffffffffffffffffffffffff16905090565b600160009054906101000a900473ffffffffffffffffffffffffffffffffffffffff1681565b600460008381526020019081526020016000208054905081106116c1576040517f08c379a00000000000000000000000000000000000000000000000000000000081526004016116b890612db4565b60405180910390fd5b60006004600084815260200190815260200160002082815481106116e8576116e7612dd4565b5b906000526020600020906004020190508060030160009054906101000a900460ff16611749576040517f08c379a000000000000000000000000000000000000000000000000000000000815260040161174090612e4f565b60405180910390fd5b3373ffffffffffffffffffffffffffffffffffffffff168160010160009054906101000a900473ffffffffffffffffffffffffffffffffffffffff1673ffffffffffffffffffffffffffffffffffffffff16146117db576040517f08c379a00000000000000000000000000000000000000000000000000000000081526004016117d2906138bd565b60405180910390fd5b600260009054906101000a900473ffffffffffffffffffffffffffffffffffffffff1673ffffffffffffffffffffffffffffffffffffffff166323b872dd303384600001546040518463ffffffff1660e01b815260040161183e93929190612ff2565b600060405180830381600087803b15801561185857600080fd5b505af115801561186c573d6000803e3d6000fd5b5050505060008160030160006101000a81548160ff021916908315150217905550817f61b9399f2f0f32ca39ce8d7be32caed5ec22fe07a6daba3a467ed479ec60658260405160405180910390a2505050565b60006003600085815260200190815260200160002090508060050160009054906101000a900460ff1615611928576040517f08c379a000000000000000000000000000000000000000000000000000000000815260040161191f90612f66565b60405180910390fd5b8060030154421061196e576040517f08c379a000000000000000000000000000000000000000000000000000000000815260040161196590612fd2565b60405180910390fd5b806001018054905083106119b7576040517f08c379a00000000000000000000000000000000000000000000000000000000081526004016119ae90613929565b60405180910390fd5b600082116119fa576040517f08c379a00000000000000000000000000000000000000000000000000000000081526004016119f190613995565b60405180910390fd5b81600160009054906101000a900473ffffffffffffffffffffffffffffffffffffffff1673ffffffffffffffffffffffffffffffffffffffff166370a08231336040518263ffffffff1660e01b8152600401611a569190612a8b565b602060405180830381865afa158015611a73573d6000803e3d6000fd5b505050506040513d601f19601f82011682018060405250810190611a9791906139b5565b1015611ad8576040517f08c379a0000000000000000000000000000000000000000000000000000000008152600401611acf90613a2e565b60405180910390fd5b600160009054906101000a900473ffffffffffffffffffffffffffffffffffffffff1673ffffffffffffffffffffffffffffffffffffffff166323b872dd3330856040518463ffffffff1660e01b8152600401611b3793929190612ff2565b6020604051808303816000875af1158015611b56573d6000803e3d6000fd5b505050506040513d601f19601f82011682018060405250810190611b7a9190613055565b611bb9576040517f08c379a0000000000000000000000000000000000000000000000000000000008152600401611bb0906130ce565b60405180910390fd5b6000600260009054906101000a900473ffffffffffffffffffffffffffffffffffffffff1673ffffffffffffffffffffffffffffffffffffffff1663a647e8ec338787876040518563ffffffff1660e01b8152600401611c1c9493929190613a4e565b6020604051808303816000875af1158015611c3b573d6000803e3d6000fd5b505050506040513d601f19601f82011682018060405250810190611c5f91906139b5565b905060056000868152602001908152602001600020600085815260200190815260200160002081908060018154018082558091505060019003906000526020600020016000909190919091505580853373ffffffffffffffffffffffffffffffffffffffff167f5dc4dcd1f92964d14e2e96d2da87291ad3eb7386b55ba0da1b3457e9ab3ed0278787604051611cf6929190613a93565b60405180910390a45050505050565b606060046000838152602001908152602001600020805480602002602001604051908101604052809291908181526020016000905b82821015611df15783829060005260206000209060040201604051806080016040529081600082015481526020016001820160009054906101000a900473ffffffffffffffffffffffffffffffffffffffff1673ffffffffffffffffffffffffffffffffffffffff1673ffffffffffffffffffffffffffffffffffffffff168152602001600282015481526020016003820160009054906101000a900460ff16151515158152505081526020019060010190611d3a565b505050509050919050565b600260009054906101000a900473ffffffffffffffffffffffffffffffffffffffff1681565b611e2a612131565b600073ffffffffffffffffffffffffffffffffffffffff168173ffffffffffffffffffffffffffffffffffffffff1603611e9c5760006040517f1e4fbdf7000000000000000000000000000000000000000000000000000000008152600401611e939190612a8b565b60405180910390fd5b611ea5816121b8565b50565b600060036000838152602001908152602001600020905060006005600084815260200190815260200160002060008360040154815260200190815260200160002090506000818054905003611efe57505061212e565b600081805490508360020154611f149190613aeb565b905060005b8280549050811015612129576000838281548110611f3a57611f39612dd4565b5b906000526020600020015490506000600260009054906101000a900473ffffffffffffffffffffffffffffffffffffffff1673ffffffffffffffffffffffffffffffffffffffff16636352211e836040518263ffffffff1660e01b8152600401611fa491906125d9565b602060405180830381865afa158015611fc1573d6000803e3d6000fd5b505050506040513d601f19601f82011682018060405250810190611fe5919061376c565b9050600160009054906101000a900473ffffffffffffffffffffffffffffffffffffffff1673ffffffffffffffffffffffffffffffffffffffff1663a9059cbb82866040518363ffffffff1660e01b8152600401612044929190613b1c565b6020604051808303816000875af1158015612063573d6000803e3d6000fd5b505050506040513d601f19601f820116820180604052508101906120879190613055565b6120c6576040517f08c379a00000000000000000000000000000000000000000000000000000000081526004016120bd906130ce565b60405180910390fd5b8073ffffffffffffffffffffffffffffffffffffffff167f95681e512bc0fe659e195e06c283eada494316f3d801213e48e7101af92bf7708560405161210c91906125d9565b60405180910390a25050808061212190613437565b915050611f19565b505050505b50565b61213961227c565b73ffffffffffffffffffffffffffffffffffffffff1661215761161a565b73ffffffffffffffffffffffffffffffffffffffff16146121b65761217a61227c565b6040517f118cdaa70000000000000000000000000000000000000000000000000000000081526004016121ad9190612a8b565b60405180910390fd5b565b60008060009054906101000a900473ffffffffffffffffffffffffffffffffffffffff169050816000806101000a81548173ffffffffffffffffffffffffffffffffffffffff021916908373ffffffffffffffffffffffffffffffffffffffff1602179055508173ffffffffffffffffffffffffffffffffffffffff168173ffffffffffffffffffffffffffffffffffffffff167f8be0079c531659141344cd1fd0a4f28419497f9722a3daafe3b4186f6b6457e060405160405180910390a35050565b600033905090565b8280548282559060005260206000209081019282156122cc579160200282015b828111156122cb5782518290816122bb9190613621565b50916020019190600101906122a4565b5b5090506122d991906122dd565b5090565b5b808211156122fd57600081816122f49190612301565b506001016122de565b5090565b50805461230d90612d37565b6000825580601f1061231f575061233e565b601f01602090049060005260206000209081019061233d9190612341565b5b50565b5b8082111561235a576000816000905550600101612342565b5090565b6000604051905090565b600080fd5b600080fd5b6000819050919050565b61238581612372565b811461239057600080fd5b50565b6000813590506123a28161237c565b92915050565b6000602082840312156123be576123bd612368565b5b60006123cc84828501612393565b91505092915050565b600081519050919050565b600082825260208201905092915050565b60005b8381101561240f5780820151818401526020810190506123f4565b60008484015250505050565b6000601f19601f8301169050919050565b6000612437826123d5565b61244181856123e0565b93506124518185602086016123f1565b61245a8161241b565b840191505092915050565b61246e81612372565b82525050565b60008115159050919050565b61248981612474565b82525050565b600073ffffffffffffffffffffffffffffffffffffffff82169050919050565b60006124ba8261248f565b9050919050565b6124ca816124af565b82525050565b600060e08201905081810360008301526124ea818a61242c565b90506124f96020830189612465565b6125066040830188612465565b6125136060830187612465565b6125206080830186612480565b61252d60a0830185612480565b61253a60c08301846124c1565b98975050505050505050565b6000806040838503121561255d5761255c612368565b5b600061256b85828601612393565b925050602061257c85828601612393565b9150509250929050565b60008060006060848603121561259f5761259e612368565b5b60006125ad86828701612393565b93505060206125be86828701612393565b92505060406125cf86828701612393565b9150509250925092565b60006020820190506125ee6000830184612465565b92915050565b60006080820190506126096000830187612465565b61261660208301866124c1565b6126236040830185612465565b6126306060830184612480565b95945050505050565b600080fd5b600080fd5b7f4e487b7100000000000000000000000000000000000000000000000000000000600052604160045260246000fd5b61267b8261241b565b810181811067ffffffffffffffff8211171561269a57612699612643565b5b80604052505050565b60006126ad61235e565b90506126b98282612672565b919050565b600067ffffffffffffffff8211156126d9576126d8612643565b5b6126e28261241b565b9050602081019050919050565b82818337600083830152505050565b600061271161270c846126be565b6126a3565b90508281526020810184848401111561272d5761272c61263e565b5b6127388482856126ef565b509392505050565b600082601f83011261275557612754612639565b5b81356127658482602086016126fe565b91505092915050565b600067ffffffffffffffff82111561278957612788612643565b5b602082029050602081019050919050565b600080fd5b60006127b26127ad8461276e565b6126a3565b905080838252602082019050602084028301858111156127d5576127d461279a565b5b835b8181101561281c57803567ffffffffffffffff8111156127fa576127f9612639565b5b8086016128078982612740565b855260208501945050506020810190506127d7565b5050509392505050565b600082601f83011261283b5761283a612639565b5b813561284b84826020860161279f565b91505092915050565b6000806000806080858703121561286e5761286d612368565b5b600085013567ffffffffffffffff81111561288c5761288b61236d565b5b61289887828801612740565b945050602085013567ffffffffffffffff8111156128b9576128b861236d565b5b6128c587828801612826565b93505060406128d687828801612393565b92505060606128e787828801612393565b91505092959194509250565b600081519050919050565b600082825260208201905092915050565b6000819050602082019050919050565b600082825260208201905092915050565b600061293b826123d5565b612945818561291f565b93506129558185602086016123f1565b61295e8161241b565b840191505092915050565b60006129758383612930565b905092915050565b6000602082019050919050565b6000612995826128f3565b61299f81856128fe565b9350836020820285016129b18561290f565b8060005b858110156129ed57848403895281516129ce8582612969565b94506129d98361297d565b925060208a019950506001810190506129b5565b50829750879550505050505092915050565b6000610100820190508181036000830152612a1a818b61242c565b90508181036020830152612a2e818a61298a565b9050612a3d6040830189612465565b612a4a6060830188612465565b612a576080830187612465565b612a6460a0830186612480565b612a7160c0830185612480565b612a7e60e08301846124c1565b9998505050505050505050565b6000602082019050612aa060008301846124c1565b92915050565b6000819050919050565b6000612acb612ac6612ac18461248f565b612aa6565b61248f565b9050919050565b6000612add82612ab0565b9050919050565b6000612aef82612ad2565b9050919050565b612aff81612ae4565b82525050565b6000602082019050612b1a6000830184612af6565b92915050565b600081519050919050565b600082825260208201905092915050565b6000819050602082019050919050565b612b5581612372565b82525050565b612b64816124af565b82525050565b612b7381612474565b82525050565b608082016000820151612b8f6000850182612b4c565b506020820151612ba26020850182612b5b565b506040820151612bb56040850182612b4c565b506060820151612bc86060850182612b6a565b50505050565b6000612bda8383612b79565b60808301905092915050565b6000602082019050919050565b6000612bfe82612b20565b612c088185612b2b565b9350612c1383612b3c565b8060005b83811015612c44578151612c2b8882612bce565b9750612c3683612be6565b925050600181019050612c17565b5085935050505092915050565b60006020820190508181036000830152612c6b8184612bf3565b905092915050565b6000612c7e82612ad2565b9050919050565b612c8e81612c73565b82525050565b6000602082019050612ca96000830184612c85565b92915050565b612cb8816124af565b8114612cc357600080fd5b50565b600081359050612cd581612caf565b92915050565b600060208284031215612cf157612cf0612368565b5b6000612cff84828501612cc6565b91505092915050565b7f4e487b7100000000000000000000000000000000000000000000000000000000600052602260045260246000fd5b60006002820490506001821680612d4f57607f821691505b602082108103612d6257612d61612d08565b5b50919050565b7f496e76616c6964206f7264657220494400000000000000000000000000000000600082015250565b6000612d9e6010836123e0565b9150612da982612d68565b602082019050919050565b60006020820190508181036000830152612dcd81612d91565b9050919050565b7f4e487b7100000000000000000000000000000000000000000000000000000000600052603260045260246000fd5b7f4f72646572206973206e6f742061637469766500000000000000000000000000600082015250565b6000612e396013836123e0565b9150612e4482612e03565b602082019050919050565b60006020820190508181036000830152612e6881612e2c565b9050919050565b600080fd5b600081519050612e838161237c565b92915050565b600060608284031215612e9f57612e9e612e6f565b5b612ea960606126a3565b90506000612eb984828501612e74565b6000830152506020612ecd84828501612e74565b6020830152506040612ee184828501612e74565b60408301525092915050565b600060608284031215612f0357612f02612368565b5b6000612f1184828501612e89565b91505092915050565b7f4c6f74746572792069732066696e697368656400000000000000000000000000600082015250565b6000612f506013836123e0565b9150612f5b82612f1a565b602082019050919050565b60006020820190508181036000830152612f7f81612f43565b9050919050565b7f4c6f747465727920697320657870697265640000000000000000000000000000600082015250565b6000612fbc6012836123e0565b9150612fc782612f86565b602082019050919050565b60006020820190508181036000830152612feb81612faf565b9050919050565b600060608201905061300760008301866124c1565b61301460208301856124c1565b6130216040830184612465565b949350505050565b61303281612474565b811461303d57600080fd5b50565b60008151905061304f81613029565b92915050565b60006020828403121561306b5761306a612368565b5b600061307984828501613040565b91505092915050565b7f5472616e73666572206661696c65640000000000000000000000000000000000600082015250565b60006130b8600f836123e0565b91506130c382613082565b602082019050919050565b600060208201905081810360008301526130e7816130ab565b9050919050565b7f4c6f747465727920646f6573206e6f7420657869737400000000000000000000600082015250565b60006131246016836123e0565b915061312f826130ee565b602082019050919050565b6000602082019050818103600083015261315381613117565b9050919050565b7f4f6e6c792063726561746f72206f72206f776e65722063616e206465636c617260008201527f6520726573756c74000000000000000000000000000000000000000000000000602082015250565b60006131b66028836123e0565b91506131c18261315a565b604082019050919050565b600060208201905081810360008301526131e5816131a9565b9050919050565b7f526573756c7420616c7265616479206465636c61726564000000000000000000600082015250565b60006132226017836123e0565b915061322d826131ec565b602082019050919050565b6000602082019050818103600083015261325181613215565b9050919050565b7f496e76616c69642077696e6e696e672063686f69636500000000000000000000600082015250565b600061328e6016836123e0565b915061329982613258565b602082019050919050565b600060208201905081810360008301526132bd81613281565b9050919050565b7f4c6f747465727920616c72656164792066696e69736865640000000000000000600082015250565b60006132fa6018836123e0565b9150613305826132c4565b602082019050919050565b60006020820190508181036000830152613329816132ed565b9050919050565b7f4174206c6561737420322063686f696365732072657175697265640000000000600082015250565b6000613366601b836123e0565b915061337182613330565b602082019050919050565b6000602082019050818103600083015261339581613359565b9050919050565b7f5072697a65206d7573742062652067726561746572207468616e203000000000600082015250565b60006133d2601c836123e0565b91506133dd8261339c565b602082019050919050565b60006020820190508181036000830152613401816133c5565b9050919050565b7f4e487b7100000000000000000000000000000000000000000000000000000000600052601160045260246000fd5b600061344282612372565b91507fffffffffffffffffffffffffffffffffffffffffffffffffffffffffffffffff820361347457613473613408565b5b600182019050919050565b60008190508160005260206000209050919050565b60006020601f8301049050919050565b600082821b905092915050565b6000600883026134e17fffffffffffffffffffffffffffffffffffffffffffffffffffffffffffffffff826134a4565b6134eb86836134a4565b95508019841693508086168417925050509392505050565b600061351e61351961351484612372565b612aa6565b612372565b9050919050565b6000819050919050565b61353883613503565b61354c61354482613525565b8484546134b1565b825550505050565b600090565b613561613554565b61356c81848461352f565b505050565b5b8181101561359057613585600082613559565b600181019050613572565b5050565b601f8211156135d5576135a68161347f565b6135af84613494565b810160208510156135be578190505b6135d26135ca85613494565b830182613571565b50505b505050565b600082821c905092915050565b60006135f8600019846008026135da565b1980831691505092915050565b600061361183836135e7565b9150826002028217905092915050565b61362a826123d5565b67ffffffffffffffff81111561364357613642612643565b5b61364d8254612d37565b613658828285613594565b600060209050601f83116001811461368b5760008415613679578287015190505b6136838582613605565b8655506136eb565b601f1984166136998661347f565b60005b828110156136c15784890151825560018201915060208501945060208101905061369c565b868310156136de57848901516136da601f8916826135e7565b8355505b6001600288020188555050505b505050505050565b60006136fe82612372565b915061370983612372565b925082820190508082111561372157613720613408565b5b92915050565b60006040820190508181036000830152613741818561242c565b90506137506020830184612465565b9392505050565b60008151905061376681612caf565b92915050565b60006020828403121561378257613781612368565b5b600061379084828501613757565b91505092915050565b7f4e6f74206f776e6572206f66207469636b657400000000000000000000000000600082015250565b60006137cf6013836123e0565b91506137da82613799565b602082019050919050565b600060208201905081810360008301526137fe816137c2565b9050919050565b7f5072696365206d7573742062652067726561746572207468616e203000000000600082015250565b600061383b601c836123e0565b915061384682613805565b602082019050919050565b6000602082019050818103600083015261386a8161382e565b9050919050565b7f4e6f742073656c6c6572206f66206f7264657200000000000000000000000000600082015250565b60006138a76013836123e0565b91506138b282613871565b602082019050919050565b600060208201905081810360008301526138d68161389a565b9050919050565b7f496e76616c69642063686f696365000000000000000000000000000000000000600082015250565b6000613913600e836123e0565b915061391e826138dd565b602082019050919050565b6000602082019050818103600083015261394281613906565b9050919050565b7f416d6f756e74206d7573742062652067726561746572207468616e2030000000600082015250565b600061397f601d836123e0565b915061398a82613949565b602082019050919050565b600060208201905081810360008301526139ae81613972565b9050919050565b6000602082840312156139cb576139ca612368565b5b60006139d984828501612e74565b91505092915050565b7f496e73756666696369656e7420746f6b656e2062616c616e6365000000000000600082015250565b6000613a18601a836123e0565b9150613a23826139e2565b602082019050919050565b60006020820190508181036000830152613a4781613a0b565b9050919050565b6000608082019050613a6360008301876124c1565b613a706020830186612465565b613a7d6040830185612465565b613a8a6060830184612465565b95945050505050565b6000604082019050613aa86000830185612465565b613ab56020830184612465565b9392505050565b7f4e487b7100000000000000000000000000000000000000000000000000000000600052601260045260246000fd5b6000613af682612372565b9150613b0183612372565b925082613b1157613b10613abc565b5b828204905092915050565b6000604082019050613b3160008301856124c1565b613b3e6020830184612465565b939250505056fea2646970667358221220ec48ab13347de2572bb30d471ed90498dd2ac3dcaeec81ab69e243966be6c7ec64736f6c63430008140033",
  "linkReferences": {},
  "deployedLinkReferences": {}
}